:020000002D28A9
:0E0006008312031321088A00200882000800DC
:1000140003208A110A128000840AA00A0319A10A83
:08002400F003031D0A28080087
:10002C00831603178801890183128713881383169B
:10003C0003138501860187018801890183128501DB
:0E004C00860187018801890183168717080045
:10005A00613083120313A0000030A1002230840013
:10006A002330F0000A2016208312871B5F284308DA
:10007A00223E840000088700C30A0319C40A063016
:10008A00FB001330FC00AD30FD00FD0B4A28FC0BD1
:10009A004A28FB0B4A280000000080304406F00082
:1000AA0080307002031D5B2821304302031C5F2845
:0800BA00C301C40139286028CC
:1000C2007F343134773437345E343F34373410344C
:1000D20079345E343E34773431345E343F34103414
:1000E200763479343134373477345E3479345B346E
:1000F20010346D34773438340634373477346D3411
:020102000034C7
:04010400003400348F
:04400E00F22F000786
:00000001FF
